{
  "_format": "hh-sol-artifact-1",
  "contractName": "MintbayEditionFactory",
  "sourceName": "contracts/MintbayEditionFactory.sol",
  "abi": [
    {
      "inputs": [],
      "stateMutability": "nonpayable",
      "type": "constructor"
    },
    {
      "inputs": [
        {
          "internalType": "address",
          "name": "owner",
          "type": "address"
        }
      ],
      "name": "OwnableInvalidOwner",
      "type": "error"
    },
    {
      "inputs": [
        {
          "internalType": "address",
          "name": "account",
          "type": "address"
        }
      ],
      "name": "OwnableUnauthorizedAccount",
      "type": "error"
    },
    {
      "anonymous": false,
      "inputs": [
        {
          "indexed": true,
          "internalType": "address",
          "name": "creator",
          "type": "address"
        },
        {
          "indexed": true,
          "internalType": "address",
          "name": "edition",
          "type": "address"
        },
        {
          "indexed": false,
          "internalType": "string",
          "name": "name",
          "type": "string"
        },
        {
          "indexed": false,
          "internalType": "uint256",
          "name": "editionSize",
          "type": "uint256"
        },
        {
          "indexed": false,
          "internalType": "uint256",
          "name": "price",
          "type": "uint256"
        }
      ],
      "name": "EditionCreated",
      "type": "event"
    },
    {
      "anonymous": false,
      "inputs": [
        {
          "indexed": true,
          "internalType": "address",
          "name": "previousOwner",
          "type": "address"
        },
        {
          "indexed": true,
          "internalType": "address",
          "name": "newOwner",
          "type": "address"
        }
      ],
      "name": "OwnershipTransferred",
      "type": "event"
    },
    {
      "anonymous": false,
      "inputs": [
        {
          "indexed": false,
          "internalType": "bool",
          "name": "paused",
          "type": "bool"
        }
      ],
      "name": "Paused",
      "type": "event"
    },
    {
      "inputs": [
        {
          "internalType": "uint256",
          "name": "",
          "type": "uint256"
        }
      ],
      "name": "allEditions",
      "outputs": [
        {
          "internalType": "address",
          "name": "",
          "type": "address"
        }
      ],
      "stateMutability": "view",
      "type": "function"
    },
    {
      "inputs": [
        {
          "internalType": "string",
          "name": "name",
          "type": "string"
        },
        {
          "internalType": "string",
          "name": "symbol",
          "type": "string"
        },
        {
          "internalType": "uint256",
          "name": "editionSize",
          "type": "uint256"
        },
        {
          "internalType": "uint256",
          "name": "price",
          "type": "uint256"
        },
        {
          "internalType": "string",
          "name": "description",
          "type": "string"
        },
        {
          "internalType": "uint256",
          "name": "launchpadFee",
          "type": "uint256"
        },
        {
          "internalType": "address",
          "name": "launchpadFeeReceiver",
          "type": "address"
        },
        {
          "internalType": "address",
          "name": "marketplaceFeeReceiver",
          "type": "address"
        }
      ],
      "name": "createEdition",
      "outputs": [
        {
          "internalType": "address",
          "name": "",
          "type": "address"
        }
      ],
      "stateMutability": "nonpayable",
      "type": "function"
    },
    {
      "inputs": [],
      "name": "createdAt",
      "outputs": [
        {
          "internalType": "uint256",
          "name": "",
          "type": "uint256"
        }
      ],
      "stateMutability": "view",
      "type": "function"
    },
    {
      "inputs": [
        {
          "internalType": "address",
          "name": "",
          "type": "address"
        },
        {
          "internalType": "uint256",
          "name": "",
          "type": "uint256"
        }
      ],
      "name": "creatorEditions",
      "outputs": [
        {
          "internalType": "address",
          "name": "",
          "type": "address"
        }
      ],
      "stateMutability": "view",
      "type": "function"
    },
    {
      "inputs": [],
      "name": "getAllEditions",
      "outputs": [
        {
          "internalType": "address[]",
          "name": "",
          "type": "address[]"
        }
      ],
      "stateMutability": "view",
      "type": "function"
    },
    {
      "inputs": [
        {
          "internalType": "address",
          "name": "creator",
          "type": "address"
        },
        {
          "internalType": "uint256",
          "name": "start",
          "type": "uint256"
        },
        {
          "internalType": "uint256",
          "name": "limit",
          "type": "uint256"
        }
      ],
      "name": "getCreatorEditions",
      "outputs": [
        {
          "internalType": "address[]",
          "name": "",
          "type": "address[]"
        }
      ],
      "stateMutability": "view",
      "type": "function"
    },
    {
      "inputs": [],
      "name": "owner",
      "outputs": [
        {
          "internalType": "address",
          "name": "",
          "type": "address"
        }
      ],
      "stateMutability": "view",
      "type": "function"
    },
    {
      "inputs": [],
      "name": "paused",
      "outputs": [
        {
          "internalType": "bool",
          "name": "",
          "type": "bool"
        }
      ],
      "stateMutability": "view",
      "type": "function"
    },
    {
      "inputs": [],
      "name": "renounceOwnership",
      "outputs": [],
      "stateMutability": "nonpayable",
      "type": "function"
    },
    {
      "inputs": [
        {
          "internalType": "bool",
          "name": "_paused",
          "type": "bool"
        }
      ],
      "name": "setPaused",
      "outputs": [],
      "stateMutability": "nonpayable",
      "type": "function"
    },
    {
      "inputs": [
        {
          "internalType": "address",
          "name": "newOwner",
          "type": "address"
        }
      ],
      "name": "transferOwnership",
      "outputs": [],
      "stateMutability": "nonpayable",
      "type": "function"
    }
  ],
  "bytecode": "0x60a080604052346100875733156100715760008054336001600160a01b03198216811783556040519290916001600160a01b0316907f8be0079c531659141344cd1fd0a4f28419497f9722a3daafe3b4186f6b6457e09080a342608052615714908161008d8239608051816104f40152f35b631e4fbdf760e01b815260006004820152602490fd5b600080fdfe608060405260043610156200001357600080fd5b60003560e01c80630635948b14620006df57806316c38b3c14620006785780635c975abb1462000653578063715018a6146200060757806383e36e0f146200058f5780638da5cb5b1462000564578063abac98ac1462000517578063cf09e0d014620004da578063f2fde38b146200045e578063faa71849146200041a5763fd36920e14620000a157600080fd5b34620004155761010036600319011262000415576001600160401b036004358181116200041557620000d8903690600401620007b6565b90916024358181116200041557620000f5903690600401620007b6565b90608435838111620004155762000111903690600401620007b6565b60c4359290916001600160a01b0384168403620004155760e435926001600160a01b0384168403620004155760ff60035416620003df5760443515620003a3578715158062000399575b1562000359576040519687614c8281011090614c82890111176200033757620001bd620001f1938897614c8262000a1d8a39610140614c828a01818152620001a691018c8e620009ce565b91614c828a0183036020614c828c010152620009ce565b33614c8288016040810191909152604435606082015260643560808201523060a082015280820360c09091015291620009ce565b60a435614c82850160e08101919091526001600160a01b03938416610100820152919092166101209091015203906000f080156200034d5760018060a01b031690336000526001602052604060002090815491600160401b92838110156200033757620002649160018201815562000756565b81546001600160a01b0360039290921b91821b19169085901b1790556002549182101562000337576001820180600255821015620003215760026000526000805160206200569f83398151915290910180546001600160a01b03191683179055604051606080825260209484937f724fed2e9f4a1af5a6eb68e3849e0b973b23699b821d3317dc10c2f89a7f58589262000303929085019190620009ce565b916044358682015260643560408201528033930390a3604051908152f35b634e487b7160e01b600052603260045260246000fd5b634e487b7160e01b600052604160045260246000fd5b6040513d6000823e3d90fd5b60405162461bcd60e51b815260206004820152601860248201527713985b5948185b99081cde5b589bdb081c995c5d5a5c995960421b6044820152606490fd5b508515156200015b565b60405162461bcd60e51b8152602060048201526014602482015273496e76616c69642065646974696f6e2073697a6560601b6044820152606490fd5b60405162461bcd60e51b815260206004820152600e60248201526d119858dd1bdc9e481c185d5cd95960921b6044820152606490fd5b600080fd5b346200041557606036600319011262000415576200045a6200044d6200043f6200073f565b604435906024359062000869565b604051918291826200076f565b0390f35b346200041557602036600319011262000415576200047b6200073f565b62000485620009ef565b6001600160a01b03908116908115620004c1576000548260018060a01b031982161760005516600080516020620056bf833981519152600080a3005b604051631e4fbdf760e01b815260006004820152602490fd5b3462000415576000366003190112620004155760206040517f00000000000000000000000000000000000000000000000000000000000000008152f35b34620004155760203660031901126200041557600435600254811015620004155760026000526000805160206200569f83398151915201546040516001600160a01b039091168152602090f35b346200041557600036600319011262000415576000546040516001600160a01b039091168152602090f35b34620004155760003660031901126200041557604051600280548083526000918252602080840193926000805160206200569f83398151915292915b828210620005e6576200045a856200044d81890382620007e6565b83546001600160a01b031686529485019460019384019390910190620005cb565b3462000415576000366003190112620004155762000624620009ef565b600080546001600160a01b0319811682556001600160a01b0316600080516020620056bf8339815191528280a3005b34620004155760003660031901126200041557602060ff600354166040519015158152f35b34620004155760203660031901126200041557600435801515809103620004155760207f0e2fb031ee032dc02d8011dc50b816eb450cf856abd8261680dac74f72165bd291620006c7620009ef565b60ff196003541660ff821617600355604051908152a1005b34620004155760403660031901126200041557620006fc6200073f565b6024359060018060a01b0380911660005260016020526040600020805483101562000415576020926200072f9162000756565b9190546040519260031b1c168152f35b600435906001600160a01b03821682036200041557565b8054821015620003215760005260206000200190600090565b602090602060408183019282815285518094520193019160005b82811062000798575050505090565b83516001600160a01b03168552938101939281019260010162000789565b9181601f8401121562000415578235916001600160401b0383116200041557602083818601950101116200041557565b601f909101601f19168101906001600160401b038211908210176200033757604052565b6001600160401b038111620003375760051b60200190565b919082018092116200083057565b634e487b7160e01b600052601160045260246000fd5b919082039182116200083057565b8051821015620003215760209160051b010190565b9160018060a01b039182600094168452600192602094600186526040812093604051808689829854938481520190855289852092855b8a8c838310620009b65750505050620008bb92500386620007e6565b84519182851015620009775782620008d4838762000822565b11159050620009635750925b620008ec838562000846565b95620008f8876200080a565b96620009086040519889620007e6565b80885262000919601f19916200080a565b01903690880137825b848110620009335750505050505090565b80836200094288938562000854565b51166200095b62000954878462000846565b8a62000854565b520162000922565b6200097091508362000822565b92620008e0565b9550505050505060405191820182811060018060401b03821117620009a25760405280825236813790565b634e487b7160e01b82526041600452602482fd5b86548a168552958101958b955090930192016200089f565b908060209392818452848401376000828201840152601f01601f1916010190565b6000546001600160a01b0316330362000a0457565b60405163118cdaa760e01b8152336004820152602490fdfe61018060405234620006c95762004c82803803806200001e81620006ce565b92833981019061014081830312620006c95780516001600160401b038111620006c957826200004f918301620006f4565b60208201516001600160401b038111620006c9578362000071918401620006f4565b90620000806040840162000766565b916060840151946080850151906200009b60a0870162000766565b60c087015190916001600160401b038211620006c957620000be918801620006f4565b9060e08701519261010098620000d68a8a0162000766565b95620000e7610120809b0162000766565b885190986001600160401b038211620003a65760005490600182811c92168015620006be575b6020831014620004bf5781601f8493116200065e575b50602090601f8311600114620005e257600092620005d6575b50508160011b916000199060031b1c1916176000555b8051906001600160401b038211620003a65760015490600182811c92168015620005cb575b6020831014620004bf5781601f8493116200056a575b50602090601f8311600114620004ec57600092620004e0575b50508160011b916000199060031b1c1916176001555b73890cf7ef93c85f68b1c94c52634d2fe68e87fdcd6080526001605e5560a0889052605f5560c05260e0528051906001600160401b038211620003a65760605490600182811c92168015620004d5575b6020831014620004bf5781601f8493116200045b575b50602090601f8311600114620003e157600092620003d5575b50508160011b916000199060031b1c1916176060555b855283526101405242610160908152906001600160a01b03168015620003bc57604080519081016001600160401b03811182821017620003a6576101f4916020916040528381520152607d60a21b17600655604051916144a693846200077c85396080518481816104e5015261182e015260a051848181610fe2015281816111a9015281816111d30152818161127601528181611df901528181611ecd015281816123c9015281816127320152818161284401528181612f53015261312a015260c051848181611c510152818161281e0152818161292b015261297a015260e0518481816106a301528181610e000152818161148d01528181611efb0152612d36015251838181611cce01528181612682015281816126fc0152818161287f01526129590152518281816105720152818161276d01526128a50152610140518281816125f90152612bf50152518161063a0152f35b634e487b7160e01b600052604160045260246000fd5b604051635b6cc80560e11b815260006004820152602490fd5b0151905038806200023b565b6060600090815260008051602062004c428339815191529350601f198516905b81811062000442575090846001959493921062000428575b505050811b0160605562000251565b015160001960f88460031b161c1916905538808062000419565b9293602060018192878601518155019501930162000401565b606060005290915060008051602062004c42833981519152601f840160051c81019160208510620004b4575b90601f859493920160051c01905b818110620004a4575062000222565b6000815584935060010162000495565b909150819062000487565b634e487b7160e01b600052602260045260246000fd5b91607f16916200020c565b015190503880620001a6565b60016000908152935060008051602062004c6283398151915291905b601f19841685106200054e576001945083601f1981161062000534575b505050811b01600155620001bc565b015160001960f88460031b161c1916905538808062000525565b8181015183556020948501946001909301929091019062000508565b600160005290915060008051602062004c62833981519152601f840160051c810160208510620005c3575b90849392915b601f830160051c82018110620005b35750506200018d565b600081558594506001016200059b565b508062000595565b91607f169162000177565b0151905038806200013c565b6000808052935060008051602062004c2283398151915291905b601f198416851062000642576001945083601f1981161062000628575b505050811b0160005562000152565b015160001960f88460031b161c1916905538808062000619565b81810151835560209485019460019093019290910190620005fc565b6000805290915060008051602062004c22833981519152601f840160051c810160208510620006b6575b90849392915b601f830160051c82018110620006a657505062000123565b600081558594506001016200068e565b508062000688565b91607f16916200010d565b600080fd5b6040519190601f01601f191682016001600160401b03811183821017620003a657604052565b919080601f84011215620006c95782516001600160401b038111620003a6576020906200072a601f8201601f19168301620006ce565b92818452828287010111620006c95760005b8181106200075257508260009394955001015290565b85810183015184820184015282016200073c565b51906001600160a01b0382168203620006c95756fe61010080604052600436101561001457600080fd5b600060e05260e0513560e01c90816301ffc9a7146131595750806302d05d3f1461311357806306fdde03146130f6578063081812fc146130b6578063095ea7b314612fc157806313ed1fd31461257557806316c38b3c14612f3357806318160ddd14612f07578063223293f514612dce57806323b872dd14612db75780632a55205a14612d905780632c32905114612cf05780632d296bf114612adf5780633af32abf14611c745780633f7e98e4146126285780633f8acca4146125e257806342842e0e146125b35780634681a7c6146125945780634e986a6b14612575578063548db17414612380578063572849c4146123615780635c975abb1461233d5780635f6bd74b1461230f5780636352211e146122df5780636ac81c47146122a957806370a082311461224d5780637284e416146121b657806375794a3c1461219757806375c1631d146120755780637aef1164146120475780637f64978314611e845780638062344414611dd95780638bc3bbc014611b6c5780638e74c35c14611dbc57806395d89b4114611cf1578063967cc42f14611cb55780639b19251a14611c74578063a035b1fe14611c38578063a22cb46514611b8b578063a2ed365b14611b6c578063a725801514611b1c578063ac3c995214611a58578063b88d4fde146119bb578063bed659bc146118f6578063bf64e1d814610ed4578063c128b23114610e81578063c189d33d14610e53578063c2d05a6e14610e2f578063c45a015514610de9578063c636484e14610db2578063c87b56dd1461072c578063cc6e64ac1461065d578063cf09e0d014610621578063d01f63f5146105a1578063d0485c161461055b578063d6dc1f8d14610531578063d90f472314610514578063db9bc38e146104ce578063dc04515c1461043c578063de74e57b146103ed578063e985e9c514610395578063ed9ec88814610359578063f2624b5d1461033a578063f4ed0f461461031b5763fc68590b146102f157600080fd5b346103155760e05136600319011261031557602060ff605d54166040519015158152f35b60e05180fd5b346103155760e051366003190112610315576020605f54604051908152f35b346103155760e051366003190112610315576020606454604051908152f35b34610315576020366003190112610315576001600160a01b0361037a613235565b1660e05152606d6020526020604060e0512054604051908152f35b34610315576040366003190112610315576103ae613235565b6103b6613250565b9060018060a01b0380911660e051526005602052604060e051209116600052602052602060ff604060002054166040519015158152f35b346103155760203660031901126103155760043560e0515260696020526060604060e0512060ff6001825492015460405192835260018060a01b038116602084015260a01c1615156040820152f35b346103155760e05136600319011261031557604051605c80548083526000918252602080840193927fec0b854938343f85eb39a6648b9e449c2e4aee4dc9b4e96ab592f9f497d0513892915b8282106104b7576104b38561049f818903826133fc565b6040519182916020835260208301906134bd565b0390f35b835486529485019460019384019390910190610488565b346103155760e051366003190112610315576040517f00000000000000000000000000000000000000000000000000000000000000006001600160a01b03168152602090f35b346103155760e05136600319011261031557602060405160fa8152f35b346103155760e051366003190112610315576008546040516001600160a01b039091168152602090f35b346103155760e051366003190112610315576040517f00000000000000000000000000000000000000000000000000000000000000006001600160a01b03168152602090f35b346103155760e051366003190112610315576040518060685491828152602080910192606860e05152602060e051209160e051905b828210610601576104b3856105ed818903826133fc565b60405191829160208352602083019061350c565b83546001600160a01b0316865294850194600193840193909101906105d6565b346103155760e0513660031901126103155760206040517f00000000000000000000000000000000000000000000000000000000000000008152f35b346103155760e0513660031901126103155760405163c45a015560e01b8152602081600481335afa90811561071f5760e051916106f0575b506001600160a01b039081167f0000000000000000000000000000000000000000000000000000000000000000909116036106de576106d56061546137b9565b60615560e05180f35b60405163b4fa3fb360e01b8152600490fd5b610712915060203d602011610718575b61070a81836133fc565b81019061379a565b81610695565b503d610700565b6040513d60e051823e3d90fd5b34610315576020366003190112610315576001600160a01b03610750600435613ac8565b16156106de5760405161076281613382565b603f81527f3c7376672077696474683d27373227206865696768743d2737322720786d6c6e60208201527f733d27687474703a2f2f7777772e77332e6f72672f323030302f737667273e00604082015260e0515b60518110610a0b57506107fb6026604051836107dc8295518092602080860191016131ed565b8101651e17b9bb339f60d11b60208201520360068101845201826133fc565b61080361341f565b61082061081160043561406b565b9261081a6141a9565b9061430d565b9160405191693d913730b6b2911d101160b11b602084015261084c815180926020602a870191016131ed565b820161202360f01b602a82015261086d825180936020602c850191016131ed565b0191711116113232b9b1b934b83a34b7b7111d101160711b602c840152603e60e051936060549061089d82613348565b916001908181169081156109dc5750600114610992575b6104b361092b876109236028828a8d7f222c22696d616765223a2022646174613a696d6167652f7376672b786d6c3b62815265185cd94d8d0b60d21b60208201526109098251809360206026850191016131ed565b0161227d60f01b60268201520360088101845201826133fc565b61081a6141a9565b61097e603d60405180937f646174613a6170706c69636174696f6e2f6a736f6e3b6261736536342c000000602083015261096e81518092602086860191016131ed565b810103601d8101845201826133fc565b604051918291602083526020830190613210565b9091929550606060e05152602060e051209060e051915b8483106109c75750505001603e01925061092360288361092b6108b4565b8181602092548a8688010152019201916109a9565b60ff1916603e84810191909152841515909402909201909201955061092392506028915084905061092b6108b4565b604051610a17816133b3565b60ff82600a01548181168352818160081c166020840152818160101c16604084015260181c1660608201526009820690818060031b0460081482151715610d0a576009830490818060031b0460081482151715610d0a57600160ff8251161480610da2575b610d7f575b60ff60208201511680151580610d6f575b610aa3575b505050506001016107b6565b92949260018103610ae15750610ad692916001949560ff6060610ad0940151169160031b9060031b613f21565b90613a87565b915b90838080610a97565b90606060ff9101511694602060018060a01b0360095416926024604051809581936362a68edd60e01b835260048301525afa91821561071f5760e05192610d2b575b5060e051606093905b60088110610be15750505050610bdb91610bd6604270139039ba3937b5b29e93b737b73293979f60791b93610b6c60019798610b66613859565b90614226565b90604051958692683c7061746820643d2760b81b602085015267272066696c6c3d2760c01b602993610ba7815180926020888a0191016131ed565b850193840152603192610bc382518093602087850191016131ed565b01918201520360228101855201836133fc565b613a87565b91610ad8565b8060031b81810460081482151715610d0a576038908103908111610d0a576001600160401b038516811c60ff1615610d225760e0515b60088110610c2b5750506001905b01610b2c565b60078082810311610d0a5760018260ff92031b60018060401b038816841c1616610c58575b600101610c17565b95600160fd1b610d02602b600193610c7b610c768c8b60031b6137f8565b61406b565b6803418bb18b41698bd160bd1b610c98610c768a8c60031b6137f8565b6040519684610cb189965180926020808a0191016131ed565b850193604d60f81b6020860152602194610cd482518093602089850191016131ed565b0193840152602292610cef82518093602087850191016131ed565b019182015203600b8101845201826133fc565b969050610c50565b634e487b7160e01b60e051526011600452602460e051fd5b50600190610c25565b9091506020813d602011610d67575b81610d47602093836133fc565b8101031261031557516001600160401b0381168103610315579086610b23565b3d9150610d3a565b5060ff6060830151161515610a92565b93610d9c90610ad060ff6040880151168460031b8660031b613f21565b93610a81565b5060ff6040820151161515610a7c565b3461031557602036600319011261031557600435605b5481101561031557610ddb60209161332d565b90546040519160031b1c8152f35b346103155760e051366003190112610315576040517f00000000000000000000000000000000000000000000000000000000000000006001600160a01b03168152602090f35b346103155760e05136600319011261031557602060ff606554166040519015158152f35b346103155760e05136600319011261031557605d5460405160089190911c6001600160a01b03168152602090f35b3461031557610eb8610ec66104b3610ea1610e9b3661329b565b90613949565b9193906040519586956060875260608701906134bd565b9085820360208701526134bd565b90838203604085015261350c565b3461031557610160366003190112610315576004356001600160401b03811161031557610f059036906004016132cc565b906024356001600160401b03811161031557610f259036906004016132cc565b9092906044356001600160401b03811161031557610f479036906004016132cc565b946064356001600160401b03811161031557610f679036906004016132cc565b91906084356001600160401b03811161031557610f889036906004016132cc565b6080529260a4359586151587036103155760c4356001600160a01b03811690036103155760e4356001600160a01b03811690036103155761010435801515810361031557610144356001600160a01b0381169003610315577f00000000000000000000000000000000000000000000000000000000000000006001600160a01b031633036118e4576001605e54036118d257605189148015906118c7575b80156118bc575b80156118b1575b6106de57600360805106158015906118a2575b6106de57610144356001600160a01b0316158015611801575b6106de57600880546001600160a01b0361014435166001600160a01b0319918216811790925560098054909116909117905560e0515b8a8a605183106117365750506080516001600160401b0310905061161b57608051600160401b1061161b57605c54608051605c558060805110611706575b5085605c60e05152602060e051209060e0515b60805181106116f2575050506110fe6080516138cf565b85605b60e05152602060e051209060e0515b60805181106116de5750505060c4356001600160a01b03166114de575b605d80546001600160a81b03191689151560ff161760c43560081b610100600160a81b031617905560e4356001600160a01b0316151580611458575b6113ea575b60ff80196065541691151516176065556101243560665560018060a01b0360c43516611333575b6111cd605e546111a4816137b9565b605e557f0000000000000000000000000000000000000000000000000000000000000000613c86565b60e080517f00000000000000000000000000000000000000000000000000000000000000006001600160a01b03169052606d60205251604090208054611212906137b9565b9055605e549586600019810111610d0a577f8eca8e2ea99e1f8ae5cb126e6fe384fdcbae0ea382ca9f4e11e9dee7af22d27b9a6112c36112df966112d1946112f19a60405160e0518152600080516020614431833981519152602060018060a01b037f000000000000000000000000000000000000000000000000000000000000000016936000190192a36112b56040519e8f9e8f6101409081815201916138ab565b8d810360208f0152916138ab565b918a830360408c01526138ab565b9187830360608901526138ab565b908482036080860152608051906138ab565b90151560a08301526001600160a01b0360c435811660c084015260e435811660e08401526101243561010084015261014435166101208301520390a160e05180f35b6080516113965760c4356001600160a01b03163b156103155760405163331b992b60e21b815260e051816004818360c4356001600160a01b03165af1801561071f57611380575b50611195565b611389906133ce565b60e051610315578a61137a565b60c4356001600160a01b03163b1561031557604051632c32905160e01b815260e051816004818360c4356001600160a01b03165af1801561071f576113db5750611195565b6113e4906133ce565b8a61137a565b60e0805160e4356001600160a01b0316905260636020525160409020805460ff1916600117905560645461141d906137b9565b60645561142b60e435613836565b6040516001815260e4356001600160a01b03169060008051602061445183398151915290602090a261116e565b5060405163c45a015560e01b815260208160048160e4356001600160a01b03165afa90811561071f5760e051916114bf575b507f00000000000000000000000000000000000000000000000000000000000000006001600160a01b03908116911614611169565b6114d8915060203d6020116107185761070a81836133fc565b8c61148a565b60405163239d30d760e21b815260e051919a9998979695949392918160048160c4356001600160a01b03165afa801561071f5760e05160a052611633575b5061153461152f60805160a051516137f8565b613917565b8051906001600160401b03821161161b57602090611551836138cf565b01605b60e05152602060e0512060c05260e0515b8281106116055750505060e0515b60a051518110156115b957806115b361159060019360a051613583565b5161159a8361332d565b90919082549060031b91821b91600019901b1916179055565b01611573565b5090919293949596979860e0515b60805181106115d6575061112d565b806115ff6115e96001936080518b613805565b3561159a6115fa8460a051516137f8565b61332d565b016115c7565b600190602083519301928160c051015501611565565b634e487b7160e01b60e051526041600452602460e051fd5b3d8060e051833e61164481836133fc565b8101602082820312610315578151906001600160401b0382116103155780601f83850101121561031557818301519161167c8361356c565b9361168a60405195866133fc565b838552602085019260208560051b8484010101116103155780820160200192915b60208560051b828401010184106116ca57505050505060a0528b61151c565b6020808094865181520194019392506116ab565b600190602083359301928185015501611110565b6001906020833593019281850155016110e7565b605c60e05152602060e051209060805182015b81830181106117295750506110d4565b60e0518155600101611719565b8261174391600193613805565b351180156117ec575b6106de5780868b8a8f8f8562ff00009261177d828c6117849561177560019d60ff9b8c93613805565b351699613805565b3594613805565b3591611791868b8d613805565b35936060604051916117a2836133b3565b87835280841660208401528086166040840152861691015261ff0086600a019563ff00000087549660181b169563ffffffff1916179160081b16179160101b161717905501611096565b50607e6117fa828589613805565b351161174c565b5060405163756fe83f60e11b81526001600160a01b036101443581166004830152602090829060249082907f0000000000000000000000000000000000000000000000000000000000000000165afa90811561071f5760e05191611867575b5015611060565b90506020813d60201161189a575b81611882602093836133fc565b8101031261031557518015158103610315578c611860565b3d9150611875565b50600960036080510411611047565b506051831415611034565b5060518b141561102d565b506051821415611026565b60405163a741a04560e01b8152600490fd5b6040516393687c0b60e01b8152600490fd5b346103155760203660031901126103155760043560ff606754166119a9578060e051526069602052604060e0512060016040519161193383613382565b80548352015460ff60018060a01b0382169182602085015260a01c161591604083159101523314908115916119a1575b506106de5761197181613b9a565b33907f70a382c18b6e794d86997f6e1f1efca577925cfa85c476a6ff7031f0a3dd6ed060e05160e051a360e05180f35b905082611963565b60405163ab35696f60e01b8152600490fd5b34610315576080366003190112610315576119d4613235565b6119dc613250565b6064359190604435906001600160401b038411610315573660238501121561031557836004013592611a0d846134f1565b93611a1b60405195866133fc565b808552366024828801011161031557806024611a5297016020870137602060e0519186010152611a4c8383836135ba565b33613e05565b60e05180f35b3461031557604036600319011261031557611a71613235565b6024356001600160401b03811161031557611a909036906004016132cc565b909160ff606754166119a957600a82116106de5760e0515b828110611afd5750611af47f10ba331e3f7141245efc795fa4bf8b7c43b04253fd06ca6143984563b2626379916040519182916020835260018060a01b031695339560208401916138ab565b0390a360e05180f35b80611b16611b0e6001938688613805565b3584336135ba565b01611aa8565b3461031557602036600319011261031557600435605181101561031557608090600a015460ff604051918181168352818160081c166020840152818160101c16604084015260181c166060820152f35b346103155760e051366003190112610315576020606254604051908152f35b3461031557604036600319011261031557611ba4613235565b60243590811515809203610315576001600160a01b0316908115611c1f573360e051526005602052604060e051208260e05152602052604060e0512060ff1981541660ff83161790556040519081527f17307eab39ab6107e8899845ad3d59bd9653f200f220920489ca2b5937696c3160203392a360e05180f35b604051630b61174360e31b815260048101839052602490fd5b346103155760e0513660031901126103155760206040517f00000000000000000000000000000000000000000000000000000000000000008152f35b34610315576020366003190112610315576001600160a01b03611c95613235565b1660e051526063602052602060ff604060e0512054166040519015158152f35b346103155760e0513660031901126103155760206040517f00000000000000000000000000000000000000000000000000000000000000008152f35b346103155760e0513660031901126103155760405160e05160018260015492611d1984613348565b9283835260209485600182169182600014611d9c575050600114611d59575b50611d45925003836133fc565b6104b3604051928284938452830190613210565b849150600160e051528160e051209060e051915b858310611d84575050611d45935082010185611d38565b80548389018501528794508693909201918101611d6d565b60ff191685820152611d4595151560051b8501019250879150611d389050565b346103155760e051366003190112610315576104b361049f613859565b346103155760203660031901126103155760043560ff606754166119a9577f00000000000000000000000000000000000000000000000000000000000000006001600160a01b031633036118e457605f548110801590611e6d575b6106de576020817f957934b91e16581d8381419681cd603e912effcd764ed405acad4886627ae48892605f55604051908152a160e05180f35b50605e546000198101908111610d0a578110611e34565b3461031557602080600319360112610315576004356001600160401b03811161031557611eb59036906004016132cc565b919060ff80606754166119a9576001600160a01b03927f0000000000000000000000000000000000000000000000000000000000000000841633036118e45760e05193807f000000000000000000000000000000000000000000000000000000000000000016945b868110611f2a5760e05180f35b60048383611f41611f3c858c8b613805565b613815565b166040519283809263c45a015560e01b82525afa90811561071f578791849160e0519161202a575b5016036106de578082611f82611f3c6001948b8a613805565b1660e05152858185858b60638084528a604060e05120541615611fac575b50505050505001611f1d565b8482611f3c9285611fd3611f3c6000805160206144518339815191529a612016988d613805565b1660e05152865261201061200b611f3c8484604060e051209c8f9d8e60ff19825416179055606461200481546137b9565b9055613805565b613836565b8d613805565b1692604051908152a2858185858b8d611fa0565b6120419150863d88116107185761070a81836133fc565b8a611f69565b346103155760203660031901126103155760043560e05152606b6020526020604060e0512054604051908152f35b34610315576120833661329b565b9060ff606754166119a95761209781613ac8565b6001600160a01b03908116331480159061218f575b801561216f575b6106de576040516120c381613382565b8381526020810191338352600160408301928184528560e051526069602052604060e05120905181550192511682549160ff60a01b9051151560a01b169160018060a81b03191617179055606c54606a60205280604060e051205560e05152606b60205280604060e051205561213a606c546137b9565b606c556040519182527f7765a1c07bdce3390c521eaeb86030b188b77cbaba2d76bd7c9c32d906bfbcba60203393a360e05180f35b508160e05152606960205260ff6001604060e05120015460a01c166120b3565b5082156120ac565b346103155760e051366003190112610315576020605e54604051908152f35b346103155760e0513660031901126103155760405160e05160605490826121dc83613348565b9182825260209360019085600182169182600014611d9c57505060011461220a5750611d45925003836133fc565b849150606060e051528160e051209060e051915b858310612235575050611d45935082010185611d38565b8054838901850152879450869390920191810161221e565b34610315576020366003190112610315576001600160a01b0361226e613235565b16801561228f5760e0515260036020526020604060e0512054604051908152f35b6040516322718ad960e21b815260e0516004820152602490fd5b3461031557602036600319011261031557600435605c5481101561031557602090605c60e051528160e051200154604051908152f35b346103155760203660031901126103155760206122fd600435613ac8565b6040516001600160a01b039091168152f35b346103155760203660031901126103155760043560e05152606a6020526020604060e0512054604051908152f35b346103155760e05136600319011261031557602060ff606754166040519015158152f35b346103155760e051366003190112610315576020606654604051908152f35b3461031557602080600319360112610315576004356001600160401b038111610315576123b19036906004016132cc565b606754919260ff9283166119a9576001600160a01b037f0000000000000000000000000000000000000000000000000000000000000000811633036118e45760e0515b8381106124015760e05180f35b81612410611f3c83878a613805565b1660e05152606380845285604060e051205416612431575b506001016123f4565b82612444611f3c84888b9a96999a613805565b1660e051528352604060e0512060ff19815416905560646124658154613829565b905560e0515b8660688054808410156125675787868a81612497611f3c61248b8a6132fc565b9690549460039a613805565b1692861b1c16146124ad5750505060010161246b565b939796600019949093818601918211610d0a576124dd876124d06124fb946132fc565b905490871b1c16916132fc565b90919060018060a01b038084549260031b9316831b921b1916179055565b8054801561254f5760019486910192612513846132fc565b81939154921b1b19169055555b8261252f611f3c83888b613805565b166000805160206144518339815191528560405160e0518152a290612428565b634e487b7160e01b60e051526031600452602460e051fd5b505050509392600190612520565b346103155760e051366003190112610315576020606154604051908152f35b346103155760e051366003190112610315576020606c54604051908152f35b3461031557611a526125c436613266565b90604051926125d2846133e1565b60e0518452611a4c8383836135ba565b346103155760e051366003190112610315576040517f00000000000000000000000000000000000000000000000000000000000000006001600160a01b03168152602090f35b602080600319360112610315576004359060ff9060ff606754166119a95782158015612abd575b6106de576064546129d7575b60665480151590816129b5575b506129a3576065805490919060ff1615612950576126a6847f000000000000000000000000000000000000000000000000000000000000000061372e565b9283341061280057605e54926126bc86856137f8565b605e553360e05152606d8352604060e051206126d98782546137f8565b905560e0515b8681106128e55750505060ff6065541660001461281257612720847f000000000000000000000000000000000000000000000000000000000000000061372e565b60011c60e05160e05160e05160e051847f00000000000000000000000000000000000000000000000000000000000000005af161275b6137c8565b50156128005760e051908190819081907f00000000000000000000000000000000000000000000000000000000000000005af16127966137c8565b5015612800575b8234116127df575b60405193845283015260408201527f26f4c0c9dd9536441681c861e4c72684bbec9e4e6d7e4492c2a90ff07cf35c6f60603392a260e05180f35b60e0518080806127ef8734613549565b335af16127fa6137c8565b506127a5575b60405163cd1c886760e01b8152600490fd5b60e051808080612842887f000000000000000000000000000000000000000000000000000000000000000061372e565b7f00000000000000000000000000000000000000000000000000000000000000005af161286d6137c8565b50156128005760e0518080806128a3887f000000000000000000000000000000000000000000000000000000000000000061372e565b7f00000000000000000000000000000000000000000000000000000000000000005af16128ce6137c8565b5061279d5760405163cd1c886760e01b8152600490fd5b806128f2600192876137f8565b6128fc8133613c86565b83548516156129295760e051905b604051918252600080516020614431833981519152873393a3016126df565b7f00000000000000000000000000000000000000000000000000000000000000009061290a565b6126a68461299e7f00000000000000000000000000000000000000000000000000000000000000007f00000000000000000000000000000000000000000000000000000000000000006137f8565b61372e565b6040516352f7657b60e01b8152600490fd5b90503360e05152606d82526129d084604060e05120546137f8565b1184612668565b60e051606854600a811115612ab85750600a5b60e0515b818110612a0e575b505061265b57604051630b094f2760e31b8152600490fd5b83612a18826132fc565b905460039190911b1c6001600160a01b031680612a3c575b50506001905b016129ee565b6040516370a0823160e01b81523360048201529190829060249082905afa60e0519181612a89575b50612a725750600190612a36565b612a7d578387612a30565b505050600184806129f6565b9091508581813d8311612ab1575b612aa181836133fc565b8101031261031557519088612a64565b503d612a97565b6129ea565b50612aca83605e546137f8565b6000198101908111610d0a57605f541061264f565b60203660031901126103155760043560ff606754166119a9578060e051526069602052604060e0512090604051612b1581613382565b6001835493848352015460018060a01b039360ff6020840192868116845260a01c16159081159182604086015291612ce6575b506106de5751831692612b5a83613b9a565b3315612ccc57612b6a8333613b03565b90811680612b8b57604051637e27328960e01b815260048101859052602490fd5b8403612ca95750612b9d815183613741565b825160fa81029080820460fa1490151715610d0a57612710900490612bcc82612bc7838751613549565b613549565b60e051909390918291829182915af1612be36137c8565b50156128005760e051908190819081907f00000000000000000000000000000000000000000000000000000000000000005af1612c1e6137c8565b50156128005760e05190819081908190875af1612c396137c8565b5015612800578051803411612c7e575b5051906040519182527f3d5eb834b5d6cadc063c171c3f25f60bca8ea892ba9db25342278927d0af955660203393a460e05180f35b60e05190819081908190612c929034613549565b335af1612c9d6137c8565b50156128005783612c49565b6040516364283d7b60e01b8152908190612cc890858760048501613597565b0390fd5b604051633250574960e11b815260e0516004820152602490fd5b9050341085612b48565b346103155760e0513660031901126103155760405163c45a015560e01b8152602081600481335afa90811561071f5760e05191612d71575b506001600160a01b039081167f0000000000000000000000000000000000000000000000000000000000000000909116036106de57612d686062546137b9565b60625560e05180f35b612d8a915060203d6020116107185761070a81836133fc565b81612d28565b3461031557612da7612da13661329b565b90613741565b906104b3604051928392836132b1565b3461031557611a52612dc836613266565b916135ba565b346103155760208060031936011261031557612de8613235565b606854612df48161356c565b90612e0260405192836133fc565b808252612e0e8161356c565b8285019390601f190136853760e0516001600160a01b03918216905b838110612e7757868587604051928392818401908285525180915260408401929160e0515b828110612e5e57505050500390f35b8351151585528695509381019392810192600101612e4f565b9081876024612e8686956132fc565b9190549160405196879384926370a0823160e01b845288600485015260031b1c165afa801561071f57889360e05191612ed5575b50906001911515612ecb8289613583565b5201909150612e2a565b8481939592503d8311612f00575b612eed81836133fc565b8101031261031557518792906001612eba565b503d612ee3565b346103155760e05136600319011261031557605e546000198101908111610d0a57602090604051908152f35b3461031557602036600319011261031557600435801515809103610315577f00000000000000000000000000000000000000000000000000000000000000006001600160a01b031633036118e45760207f0e2fb031ee032dc02d8011dc50b816eb450cf856abd8261680dac74f72165bd29160ff196067541660ff821617606755604051908152a160e05180f35b3461031557604036600319011261031557612fda613235565b602435612fe681613ac8565b331515806130a3575b80613072575b61305a5760e0516001600160a01b0393841693839285929116907f8c5be1e5ebec7d5bd14f71427d1e84f3dd0314c0f7b2291e5b200ac8c7c3b9259080a460e08051919091526004602052516040812080546001600160a01b03191690921790915580f35b60405163a9fbf51f60e01b8152336004820152602490fd5b5060018060a01b03811660e051526005602052604060e051203360e0515260205260ff604060e05120541615612ff5565b506001600160a01b038116331415612fef565b34610315576020366003190112610315576004356130d381613ac8565b5060e051526004602052602060018060a01b03604060e051205416604051908152f35b346103155760e051366003190112610315576104b361097e61341f565b346103155760e051366003190112610315576040517f00000000000000000000000000000000000000000000000000000000000000006001600160a01b03168152602090f35b34610315576020366003190112610315576004359063ffffffff60e01b8216809203610315576020916380ac58cd60e01b811480156131dd575b80156131cd575b809181156131ab575b505015158152f35b63152a902d60e11b14915081156131c5575b5083806131a3565b9050836131bd565b506301ffc9a760e01b811461319a565b50635b5e139f60e01b8114613193565b60005b8381106132005750506000910152565b81810151838201526020016131f0565b90602091613229815180928185528580860191016131ed565b601f01601f1916010190565b600435906001600160a01b038216820361324b57565b600080fd5b602435906001600160a01b038216820361324b57565b606090600319011261324b576001600160a01b0390600435828116810361324b5791602435908116810361324b579060443590565b604090600319011261324b576004359060243590565b6001600160a01b039091168152602081019190915260400190565b9181601f8401121561324b578235916001600160401b03831161324b576020808501948460051b01011161324b57565b60685481101561331757606860005260206000200190600090565b634e487b7160e01b600052603260045260246000fd5b605b5481101561331757605b60005260206000200190600090565b90600182811c92168015613378575b602083101461336257565b634e487b7160e01b600052602260045260246000fd5b91607f1691613357565b606081019081106001600160401b0382111761339d57604052565b634e487b7160e01b600052604160045260246000fd5b608081019081106001600160401b0382111761339d57604052565b6001600160401b03811161339d57604052565b602081019081106001600160401b0382111761339d57604052565b601f909101601f19168101906001600160401b0382119082101761339d57604052565b604051906000826000549161343383613348565b80835260209360019081811690811561349d575060011461345f575b505061345d925003836133fc565b565b600080805285812095935091905b81831061348557505061345d9350820101388061344f565b8554888401850152948501948794509183019161346d565b91505061345d94925060ff191682840152151560051b820101388061344f565b90815180825260208080930193019160005b8281106134dd575050505090565b8351855293810193928101926001016134cf565b6001600160401b03811161339d57601f01601f191660200190565b90815180825260208080930193019160005b82811061352c575050505090565b83516001600160a01b03168552938101939281019260010161351e565b9190820391821161355657565b634e487b7160e01b600052601160045260246000fd5b6001600160401b03811161339d5760051b60200190565b80518210156133175760209160051b010190565b6001600160a01b0391821681526020810192909252909116604082015260600190565b906001600160a01b0390811680156137155760009184835284602092600284526040938385872054169586913315158061367e575b50906002600080516020614411833981519152928461365e575b85835260038152888320805460010190558683525286812080546001600160a01b0319168517905580a4831682036136415750505050565b516364283d7b60e01b8152928392612cc892919060048501613597565b61366787614208565b848352600381528883208054600019019055613609565b919394509150806136d4575b1561369a578792918691386135ef565b8488876136b7576024915190637e27328960e01b82526004820152fd5b905163177e802f60e01b8152908190612cc89033600484016132b1565b5033861480156136f9575b8061368a575087825260048152338486842054161461368a565b5085825260058152848220338352815260ff85832054166136df565b604051633250574960e11b815260006004820152602490fd5b8181029291811591840414171561355657565b6000908152600760205260409020546001600160a01b0380821693929160a01c908415613785575b5061271091613781916001600160601b03169061372e565b0490565b600654908116945060a01c9050612710613769565b9081602091031261324b57516001600160a01b038116810361324b5790565b60001981146135565760010190565b3d156137f3573d906137d9826134f1565b916137e760405193846133fc565b82523d6000602084013e565b606090565b9190820180921161355657565b91908110156133175760051b0190565b356001600160a01b038116810361324b5790565b8015613556576000190190565b60685490600160401b82101561339d576124dd82600161345d94016068556132fc565b60405190605b54808352826020916020820190605b6000526020600020936000905b8282106138915750505061345d925003836133fc565b85548452600195860195889550938101939091019061387b565b81835290916001600160fb1b03831161324b5760209260051b809284830137010190565b600160401b811161339d57605b549080605b558181106138ed575050565b600090605b600052602060002092830192015b82811061390c57505050565b818155600101613900565b906139218261356c565b61392e60405191826133fc565b828152809261393f601f199161356c565b0190602036910137565b90606c549081831015613a48578161396182856137f8565b1115613a375750905b61397761152f8284613549565b9261398561152f8385613549565b9261399361152f8483613549565b92805b8281106139a257505050565b806001916000526020606b81526040806000205480600052606983528160002090858351926139d084613382565b8054845201549260ff878060a01b0395840194868116865260a01c16151590830152613a056139ff8887613549565b8d613583565b5251613a1a613a148786613549565b8b613583565b525116613a30613a2a8584613549565b88613583565b5201613996565b613a429150826137f8565b9061396a565b505050604051613a57816133e1565b6000815260405191613a68836133e1565b6000835260405191613a79836133e1565b600083526000368137929190565b602061345d919392936040519481613aa887935180928680870191016131ed565b8201613abc825180938680850191016131ed565b010380855201836133fc565b6000818152600260205260409020546001600160a01b0316908115613aeb575090565b60249060405190637e27328960e01b82526004820152fd5b6000828152600260205260408120546001600160a01b03908116939284916000805160206144118339815191529183613b78575b169283613b60575b84815260026020526040812080546001600160a01b0319168517905580a490565b83815260036020526040812060018154019055613b3f565b613b8186614208565b8385526003602052604085208054600019019055613b37565b6000908082526020606a81526040918284205490606c549160001992838101908111613c72578652606b84528486205482875260698552858720600101805460ff60a01b19169055606c54909190848101908111613c5e578103613c41575b50508452606a82528383812055606c54908101908111613c2d5790606b91845252812055613c28606c54613829565b606c55565b634e487b7160e01b84526011600452602484fd5b818752606a855280868820558652606b8452848620553880613bf9565b634e487b7160e01b88526011600452602488fd5b634e487b7160e01b87526011600452602487fd5b6040918251613c94816133e1565b60008082526001600160a01b0384811694919291908515613ded57613cb98583613b03565b16613dd5573b613ccb575b5050505050565b6020613d0891869795965180938192630a85bd0160e11b978884523360048501528760248501526044840152608060648401526084830190613210565b038185895af190829082613d85575b5050613d5057505050613d286137c8565b8051929083613d49578151633250574960e11b815260048101849052602490fd5b8390602001fd5b9193916001600160e01b03191603613d6e5750503880808080613cc4565b602492505190633250574960e11b82526004820152fd5b909192506020813d602011613dcd575b81613da2602093836133fc565b81010312613dc95751906001600160e01b031982168203613dc65750903880613d17565b80fd5b5080fd5b3d9150613d95565b85516339e3563760e11b815260048101849052602490fd5b8651633250574960e11b815260048101859052602490fd5b9293823b613e14575050505050565b613e589060018060a01b038094169560405194859481630a85bd0160e11b988988521660048701521660248501526044840152608060648401526084830190613210565b03906020816000938185885af190829082613ed8575b5050613ea65782613e7d6137c8565b8051919082613e9f57604051633250574960e11b815260048101839052602490fd5b9050602001fd5b6001600160e01b03191603613ec057503880808080613cc4565b60249060405190633250574960e11b82526004820152fd5b909192506020813d602011613f19575b81613ef5602093836133fc565b81010312613dc95751906001600160e01b031982168203613dc65750903880613e6e565b3d9150613ee8565b613f2d613f339161406b565b9161406b565b91604051908190605b54808452602080940190605b600052846000209060005b81811061402f5750505082605c9492613f7561402c9795613f7a9403836133fc565b614226565b90614003604051968794683c7265637420783d2760b81b84870152613fa8815180928660298a0191016131ed565b8501642720793d2760d81b6029820152613fcb8251809386602e850191016131ed565b01917f272077696474683d273827206865696768743d2738272066696c6c3d27000000602e8401528351938491604b850191016131ed565b0170139039ba3937b5b29e93b737b73293979f60791b604b82015203603c8101845201826133fc565b90565b825484529286019260019283019201613f53565b9061404d826134f1565b61405a60405191826133fc565b828152809261393f601f19916134f1565b6000908072184f03e93ff9f4daa797ed6e38ed64bf6a1f0160401b8082101561419b575b506904ee2d6d415b85acef8160201b8083101561418c575b50662386f26fc100008083101561417d575b506305f5e1008083101561416e575b506127108083101561415f575b50606482101561414f575b600a80921015614145575b6001908160216140fd60018701614043565b95860101905b61410f575b5050505090565b600019019083906f181899199a1a9b1b9c1cb0b131b232b360811b8282061a83530491821561414057919082614103565b614108565b91600101916140eb565b91906064600291049101916140e0565b600491939204910191386140d5565b600891939204910191386140c8565b601091939204910191386140b9565b602091939204910191386140a7565b60409350810491503861408f565b604051906141b682613382565b604082527f6768696a6b6c6d6e6f707172737475767778797a303132333435363738392b2f6040837f4142434445464748494a4b4c4d4e4f505152535455565758595a61626364656660208201520152565b600090815260046020526040902080546001600160a01b0319169055565b600019810190811161355657600381029080820460031490151715613556576142586142528284613583565b5161406b565b9160018201808311613556576142526142719183613583565b92600283018093116135565761428f61425261402c94602794613583565b604051948592630e4cec4560e31b60208501526142b68151809260206024880191016131ed565b830190600b60fa1b918260248201526142d98251809360206025850191016131ed565b019060258201526142f48251809360206026850191016131ed565b01602960f81b60268201520360078101845201826133fc565b9190918051156143fa5780519260029160028501809511613556576003948590046001600160fe1b03811681036135565761434d9060029694961b614043565b926020840192829183518401976020890192835194600085525b8a81106143ad5750505050600393949596505251068060011461439a5760021461438f575090565b603d90600019015390565b50603d9081600019820153600119015390565b836004919b989b019a8b51600190603f9082828260121c16870101518453828282600c1c16870101518385015382828260061c168701015187850153168401015185820153019699614367565b509050604051614409816133e1565b600081529056feddf252ad1be2c89b69c2b068fc378daa952ba7f163c4a11628f55a4df523b3ef2d03118aa776f7008445f6ca8490a6782ede2db364d741513555ba656ab1879ff93f9a76c1bf3444d22400a00cb9fe990e6abe9dbb333fda48859cfee864543da2646970667358221220a7061bf93c61faf1852fdd2f0fa2d22a4762a9e2a92e929706b75584f39892c864736f6c63430008170033290decd9548b62a8d60345a988386fc84ba6bc95484008f6362f93160ef3e56341c7ae758795765c6664a5d39bf63841c71ff191e9189522bad8ebff5d4eca98b10e2d527612073b26eecdfd717e6a320cf44b4afac2b0732d9fcbe2b7fa0cf6405787fa12a823e0f2b7631cc41b3ba8828b3321ca811111fa75cd3aa3bb5ace8be0079c531659141344cd1fd0a4f28419497f9722a3daafe3b4186f6b6457e0a2646970667358221220ef4ba6fdb8b658524e86a93eaa8b847c24a6c26431b19b3ea3cc25f04c5d009864736f6c63430008170033",
  "linkReferences": {},
  "deployedLinkReferences": {}
}